:0400000007EF00F016
:100008006A8281ED12F01AEF14F09D0E0001B16FB3
:10001800000EB26F10EF06F0250EC819D8B40AD03A
:1000280099C0D9FF9AC0DAFFC8C0DFFF994B9A2B55
:1000380010EF06F0000EC76F000EC66F000EC36FFC
:10004800000EC26F07D00001C28702D00001C2852E
:100058009B4B9C2B9BC0F6FF9CC0F7FFF86A0800DF
:10006800F5502D0AD8B4EFD71D0AD8B4EFD7000140
:10007800C2B7C2959BC0F6FF9CC0F7FFF86A08009C
:10008800F5509EEC17F0D8A036D0000E0001C76FCF
:10009800000EC66FC6C022F0C7C023F0000E256E42
:1000A8000A0E246E31EC17F022C0C6F023C0C7F048
:1000B800D00E0001A66FFF0EA76F9BC0F6FF9CC075
:1000C800F7FFF86A0800F550A86FA96BA651A82792
:1000D800A751A923A851C627A951C7239B4B9C2BDD
:1000E8009BC0F6FF9CC0F7FFF86A0800F5509EEC2D
:1000F80017F0D8B0CFD79BC0F6FF9CC0F7FFF86ABF
:100108000800F5502E0AD8A432D00001C38D9B4BAD
:100118009C2B000EC56F000EC46F1DD0C4C022F00A
:10012800C5C023F0000E256E0A0E246E31EC17F0C0
:100138009BC0F6FF9CC0F7FFF86A0800F55022261E
:10014800000E2322D00E22240001C46FFF0E2320AC
:10015800C56F9B4B9C2B9BC0F6FF9CC0F7FFF86AB2
:100168000800F5509EEC17F0D8A094D0D7D7000E11
:100178000001C56F000EC46FC3898CD0C385A8D099
:10018800B1C0D9FFB2C0DAFFDECFAFF0DDCFB0F03B
:10019800020EB127000EB223AF51B011D8A404D07B
:1001A800A10EAF6FFF0EB06F000EB46F000EB36FED
:1001B80002D0B34BB42BB351AF25A66FB451B021C5
:1001C800A76FA6C0F6FFA7C0F7FFF86A0800F550AA
:1001D8000009D8A4EED7C451C511D8B40AD0B35178
:1001E800C45DB451C559D8B004D0C4C0B3F0C5C0BB
:1001F800B4F0C651B35DC751B459D8B005D0B351A6
:10020800C65FB451C75B04D0000EC76F000EC66F3F
:10021800C2A709D021D099C0D9FF9AC0DAFF200E11
:10022800DF6E994B9A2BC607D8A0C707C629F3E1FA
:10023800C729D8B411D0EFD7AFC0F6FFB0C0F7FFC9
:10024800F86A99C0D9FF9AC0DAFF0800F5CFDFFF36
:10025800AF4BB02B994B9A2BB307D8A0B407B3294F
:10026800EBE1B429D8A4E8D7C2B70AD010EF06F05A
:1002780099C0D9FF9AC0DAFF200EDF6E994B9A2BEE
:10028800C607D8A0C707C629F3E1C729D8B410EF15
:1002980006F0EED79BC0F6FF9CC0F7FF00019B4B12
:1002A8009C2BF86A0800F5CFC8F0C851000AD8B4EA
:1002B8001EEF06F0640AD8B40BD0020AD8B45ED791
:1002C8000F0AD8B405D01A0AD8B45AD710EF06F0D6
:1002D800070EC315D8B44DD3C3A904D0000EC56FFB
:1002E800060EC46FB1C0D9FFB2C0DAFFDECFBFF0CF
:1002F800DECFC0F0DDCFC1F0030EB127000EB22370
:10030800C1AF11D0BFC014F0C0C015F0C1C016F005
:1003180057EC17F014C0BFF015C0C0F016C0C1F0FC
:10032800030E0001C213000EBE6F000EBD6FBF5159
:10033800C011C111D8B486D0820EA66FFF0EA76F68
:10034800BFC0A8F0C0C0A9F0C1C0AAF0C2C0ABF03D
:10035800100E05D0D890AB33AA33A933A833E82EB2
:10036800F9D7A851A625BD6F000EA721BE6FBD07FE
:10037800D8A0BE07BDC022F0BEC023F0000E256E77
:10038800030E246E31EC17F022C0BDF023C0BEF07E
:10039800BDC01AF0BEC01BF0000E1D6E0A0E1C6E0A
:1003A800D8EC13F01AC0BDF01BC0BEF00001BEAF00
:1003B80003D0BD07D8A0BE07BD5100083BEC0BF029
:1003C80053C0B5F054C0B6F055C0B7F0B5C044F04E
:1003D800B6C045F0B7C046F0BFC047F0C0C048F04F
:1003E800C1C049F02EEC11F044C0B5F045C0B6F0DC
:1003F80046C0B7F0B5C014F0B6C015F0B7C016F0D7
:10040800000E176E800E186E3F0E196E90EC13F0EA
:10041800D8B005D00001BD07D8A0BE0713D0B5C01D
:1004280014F0B6C015F0B7C016F0000E176E200E07
:10043800186E410E196E90EC13F0D8A003D000018D
:10044800BD4BBE2B0001C5BF06D0C5511BE10D0E2B
:10045800C45DD8B017D0BFC087F0C0C088F0C1C095
:1004680089F0C4516FEC0DF053C08AF054C08BF082
:1004780055C08CF0AEEC0EF087C0BFF088C0C0F05D
:1004880089C0C1F00001BEBF06D0BE511FE10A0EEF
:10049800BD5DD8B01BD0BF51C011C111D8B455D063
:1004A800BFC084F0C0C085F0C1C086F0B2EC10F0C7
:1004B80000018451851186118711D8B4BEBF45D07B
:1004C800BE5104E1020EBD5DD8A03FD0B5C014F006
:1004D800B6C015F0B7C016F0700E176E890E186EFC
:1004E800400E196E90EC13F0D8B003D00001F70E4F
:1004F80002D00001F80EBD27FF0EBE23BD513BEC14
:100508000BF053C0B5F054C0B6F055C0B7F0BFC03B
:1005180014F0C0C015F0C1C016F0B5C017F0B6C0D1
:1005280018F0B7C019F085EC0FF014C0B9F015C079
:10053800BAF016C0BBF017C0BCF0000E0001BF6FC8
:10054800000EC06F000EC16F33D0BFC084F0C0C0B2
:1005580085F0C1C086F0B2EC10F084C0B9F085C057
:10056800BAF086C0BBF087C0BCF0BFC093F0C0C073
:1005780094F0C1C095F0B9C01CF0BAC01DF0BBC062
:100588001EF0BCC01FF0ABEC15F01CC096F01DC0EF
:1005980097F01EC098F09FEC16F093C0BFF094C07F
:1005A800C0F095C0C1F0000E0001BE6F000EBD6F17
:1005B800010EC86F0A0EC819D8B41BD0C851040D53
:1005C8005B0EF324F66EFE0EF420F76EF86A000E4A
:1005D800F8220900F550B95D0900F550BA5909002B
:1005E800F550BB590900F550BC59D8A002D0C82B0A
:1005F800E1D7C8C0A6F0A76BA6BFA707C451A62716
:10060800C551A723BD51A627BE51A723A651C65F32
:10061800A751C75BC451C511D8B403D0C607D8A029
:10062800C707030EC215A66F000EC315A76FA65104
:10063800A711D8B403D0C607D8A0C707C2A526D02B
:10064800030EC215A66F000EC315A76FA651A711FA
:10065800D8B414D099C0D9FF9AC0DAFF2D0EDF6E36
:10066800994B9A2B0BD099C0D9FF9AC0DAFF300E5C
:10067800DF6E994B9A2BC607D8A0C707C7BF78D09B
:10068800C751F1E1C605D8A073D0EDD7C2A70CD0E9
:1006980012D099C0D9FF9AC0DAFF200EDF6E994BAD
:1006A8009A2BC607D8A0C707C7BF05D0C751F1E125
:1006B800C605D8B0EED7030EC215A66F000EC31537
:1006C800A76FA651A711D8B453D099C0D9FF9AC023
:1006D800DAFF2D0E4AD0B9C014F0BAC015F0BBC06D
:1006E80016F0BCC017F0C851040D5B0EF324F66E6B
:1006F800FE0EF420F76EF86A000EF8220900F5CF16
:1007080018F00900F5CF19F00900F5CF1AF00A0022
:10071800F5CF1BF05BEC14F014C0B5F015C0B6F0C3
:1007280016C0B7F017C0B8F0B5C021F0B6C022F0B7
:10073800B7C023F0B8C024F00A0E256E000E266E4E
:10074800000E276E000E286E14EC15F021C0B5F0CF
:1007580022C0B6F023C0B7F024C0B8F00001B551EC
:10076800300F99C0D9FF9AC0DAFFDF6E994B9A2BE8
:10077800C807C829D8B40CD0AED799C0D9FF9AC039
:10078800DAFF300EDF6E994B9A2BBD07D8A0BE0753
:10079800BEBF05D0BE51F1E1BD05D8B0EED7C5BF8B
:1007A80009D0C55104E1090EC45DD8A003D0080ED4
:1007B800C86F02D0C4C0C8F0C851C45F000EC8BF1B
:1007C800FF0EC55BC851D8B408D099C0D9FF9AC0EC
:1007D800DAFF2E0EDF6E994B9A2BC8513BEC0BF0CB
:1007E80053C0ACF054C0ADF055C0AEF0BFC047F038
:1007F800C0C048F0C1C049F0ACC044F0ADC045F03D
:10080800AEC046F02EEC11F044C084F045C085F02F
:1008180046C086F0B2EC10F084C0B9F085C0BAF0DA
:1008280086C0BBF087C0BCF077D0B9C014F0BAC09E
:1008380015F0BBC016F0BCC017F00001C851040D7C
:100848005B0EF324F66EFE0EF420F76EF86A000EC7
:10085800F8220900F5CF18F00900F5CF19F00900C2
:10086800F5CF1AF00A00F5CF1BF05BEC14F014C0BA
:10087800B5F015C0B6F016C0B7F017C0B8F0B5C0DF
:1008880021F0B6C022F0B7C023F0B8C024F00A0E99
:10089800256E000E266E000E276E000E286E14ECD4
:1008A80015F021C0B5F022C0B6F023C0B7F024C0BF
:1008B800B8F00001B551300F99C0D9FF9AC0DAFFDE
:1008C800DF6E994B9A2BB9C021F0BAC022F0BBC099
:1008D80023F0BCC024F0C851040D5B0EF324F66E5F
:1008E800FE0EF420F76EF86A000EF8220900F5CF24
:1008F80025F00900F5CF26F00900F5CF27F00A000A
:10090800F5CF28F014EC15F021C0B9F022C0BAF0E8
:1009180023C0BBF024C0BCF00001C807C829D8B464
:100928000CD083D799C0D9FF9AC0DAFF300EDF6E9A
:10093800994B9A2BC407D8A0C507C451C511D8A490
:10094800F1D7C2B7C7BF68D1C75103E1C605D8A060
:1009580063D199C0D9FF9AC0DAFF200EDF6E994B98
:100968009A2BC607D8A0C707C651C711D8B454D107
:10097800F0D7B1C0D9FFB2C0DAFFDECFB9F0DDCF12
:10098800BAF0000EBABFFF0EBB6FBC6F020EB127E4
:10099800000EB223BCAF0AD0030EC213BC1FBB1F8C
:1009A800BA1FB96D000EBA23BB23BC23C451C511AD
:1009B800D8A408D0B951BA11BB11BC11D8A402D01F
:1009C800C44BC52B010EC86F0A0EC819D8B41BD06A
:1009D800C851040D5B0EF324F66EFE0EF420F76E7C
:1009E800F86A000EF8220900F550B95D0900F550C3
:1009F800BA590900F550BB590900F550BC59D8A09F
:100A080002D0C82BE1D7800EC8BF7F0EA66FC45195
:100A1800C85DC551800AA659D8B003D0C4C0C8F073
:100A280010D0C551800AA66FC851C45D800EC8BFDA
:100A38007F0EA659D8B005D0C851C46FC56BC4BFC6
:100A4800C507C651C711D8B40DD0030EC215A66F7D
:100A5800000EC315A76FA651A711D8B403D0C607B7
:100A6800D8A0C707C3AD13D0C651C45DC551800A0D
:100A7800A66FC751800AA659D8B005D0C451C65F21
:100A8800C551C75B04D0000EC76F000EC66F800E3D
:100A9800C8BF7F0EA66FC651C85DC751800AA65948
:100AA800D8B007D0C851C65F000EC8BFFF0EC75BDD
:100AB80004D0000EC76F000EC66FC2A522D0030E69
:100AC800C215A66F000EC315A76FA651A711D8B4FB
:100AD80008D099C0D9FF9AC0DAFF2D0EDF6E994B66
:100AE8009A2BC651C711D8B478D099C0D9FF9AC0EB
:100AF800DAFF300EDF6E994B9A2BC607D8A0C707CE
:100B0800F0D7C651C711D8A4C2B70FD099C0D9FF22
:100B18009AC0DAFF200EDF6E994B9A2BC607D8A031
:100B2800C707C651C711D8A4F1D7030EC215A66FBF
:100B3800000EC315A76FA651A711D8B44ED099C0FF
:100B4800D9FF9AC0DAFF2D0EDF6E45D0C4C0A6F0DB
:100B5800C5C0A7F0D890A637A737D890A637A7372B
:100B68005B0EA625F66EFE0EA721F76EF86A000E3C
:100B7800F8220900F5CF18F00900F5CF19F009009F
:100B8800F5CF1AF00A00F5CF1BF0B9C014F0BAC0BF
:100B980015F0BBC016F0BCC017F05BEC14F014C025
:100BA80021F015C022F016C023F017C024F00A0E59
:100BB800256E000E266E000E276E000E286E14ECB1
:100BC80015F02150300F0001C86F99C0D9FF9AC0A5
:100BD800DAFFC8C0DFFF994B9A2BC407D8A0C50716
:100BE800C429B4E1C529D8A4B1D7C2B7C7BF14D0A6
:100BF800C75103E1C605D8A00FD099C0D9FF9AC044
:100C0800DAFF200EDF6E994B9A2BC607D8A0C707CC
:100C1800C651C711D8A4F1D79BC0F6FF9CC0F7FFF7
:100C28009B4B9C2BF86A0800F5CFC8F0C851D8A494
:100C380010EF00F099C0D9FF9AC0DAFF000EDF6EFE
:100C48001200ADEC17F069EC17F07AEC15F0EEEC49
:100C580017F082AA04D00001C96BC92B02D0000189
:100C6800C96BC9510101266F276B82A404D000010A
:100C7800C96BC92B02D00001C96BC9510101286F8A
:100C8800296B000E2B6F000E2A6F000E2D6F000EC1
:100C98002C6F000E2F6F000E2E6F000E316F000E9E
:100CA800306F000E336F000E326F000E356F000E7E
:100CB800346F000E376F000E366F000E396F000E5E
:100CC800386F0C0E04EC16F02FEC16F0000E010134
:100CD800556F000E576F020E47EC15F03BC044F0FD
:100CE8003CC045F03DC046F0000E476EC80E486E49
:100CF800420E496E2EEC11F044C023F145C024F198
:100D080046C025F1000E01013E6F04000101565155
:100D1800D8B4FBD7040E1E6E010EC0EC16F05B0EA5
:100D2800226E010E236E7BEC17F0520E01015C1946
:100D3800D8A426D0740E5D19D8A422D03E0E5E1910
:100D4800D8A41ED0000E0001996F010E9A6FD10E23
:100D58009B6FFE0E9C6F3FC19DF040C19EF041C14C
:100D68009FF042C1A0F043C1A1F044C1A2F009EC38
:100D780000F0000E156E010E166ED9EC15F076D245
:100D8800520E01015C19D8A45DD0410E5D19D8A49A
:100D980059D03E0E5F19D8B449D054D0000E000186
:100DA800996F010E9A6F810E9B6FFF0E9C6F47C162
:100DB8009DF048C19EF049C19FF009EC00F0000E7B
:100DC800156E010E166ED9EC15F050D2000E00010A
:100DD800996F010E9A6F890E9B6FFF0E9C6F4AC127
:100DE8009DF04BC19EF04CC19FF009EC00F0000E45
:100DF800156E010E166ED9EC15F038D2000E0001F2
:100E0800996F010E9A6F910E9B6FFF0E9C6F4DC1EB
:100E18009DF04EC19EF04FC19FF009EC00F0000E0E
:100E2800156E010E166ED9EC15F020D201015E5137
:100E3800300AD8B4B3D7010AD8B4C8D7030AD8B48B
:100E4800DDD714D2520E5C19D8A436D13E0E5E19E5
:100E5800D8B426D131D182AA04D00001C96BC92BDC
:100E680002D00001C96BC9510101266F276B260505
:100E78002711D8A407D0AB0E156EFF0E166ED9EC4D
:100E880015F0F4D14C0E156EFF0E166ED9EC15F058
:100E9800EDD182A404D00001C96BC92B02D0000196
:100EA800C96BC9510101286F296B28052911D8A4DC
:100EB80007D0AB0E156EFF0E166ED9EC15F0D6D115
:100EC8004C0E156EFF0E166ED9EC15F0CFD183A01F
:100ED80004D00001C96BC92B02D00001C96BC951EC
:100EE80001012A6F2B6B2A052B11D8A407D0A80E55
:100EF800156EFF0E166ED9EC15F006D0490E156E5C
:100F0800FF0E166ED9EC15F083A204D00001C96B50
:100F1800C92B02D00001C96BC95101012C6F2D6B7F
:100F28002C052D11D8A407D0AF0E156EFF0E166E26
:100F3800D9EC15F006D0510E156EFF0E166ED9ECD1
:100F480015F083A404D00001C96BC92B02D000019D
:100F5800C96BC95101012E6F2F6B2E052F11D8A413
:100F680007D0B60E156EFF0E166ED9EC15F006D02A
:100F7800590E156EFF0E166ED9EC15F082A604D028
:100F88000001C96BC92B02D00001C96BC95101010D
:100F9800306F316B30053111D8A407D0BD0E156EF6
:100FA800FF0E166ED9EC15F006D0610E156EFF0E09
:100FB800166ED9EC15F083A804D00001C96BC92BB3
:100FC80002D00001C96BC9510101326F336B320580
:100FD8003311D8A407D0C40E156EFF0E166ED9ECC7
:100FE80015F006D0690E156EFF0E166ED9EC15F0C9
:100FF80083AA04D00001C96BC92B02D00001C96BB8
:10100800C9510101346F356B34053511D8A407D0A7
:10101800CB0E156EFF0E166ED9EC15F006D0710EBC
:10102800156EFF0E166ED9EC15F083AC04D00001D6
:10103800C96BC92B02D00001C96BC9510101366FB8
:10104800376B36053711D8A407D0D20E156EFF0EB0
:10105800166ED9EC15F006D0690E156EFF0E166ED9
:10106800D9EC15F083AE04D00001C96BC92B02D0AE
:101078000001C96BC9510101386F396B3805391145
:10108800D8A407D0D90E156EFF0E166ED9EC15F040
:10109800EDD0790E156EFF0E166ED9EC15F0E6D070
:1010A80001015D51430AD8B4F4D6070AD8B40FD762
:1010B8000C0AD8B4D0D6DAD0570E5C19D8A40CD004
:1010C800480E5D19D8A408D0560E5E19D8A404D0CD
:1010D8003E0E6019D8B432D0570E5C19D8A419D076
:1010E800430E5D19D8A415D0560E5E19D8A411D098
:1010F8003E0E6019D8B405D00CD08294B7D0828443
:10110800B5D05F51300AD8B4F8D7010AD8B4F7D7A8
:10111800ADD0570E5C19D8A419D0480E5D19D8A4C3
:1011280015D0560E5E19D8A411D03E0E6019D8B449
:1011380005D00CD0829A9AD0828A98D05F51300A12
:10114800D8B4F8D7010AD8B4F7D790D0570E5C199D
:10115800D8A419D0340E5D19D8A415D0560E5E192E
:10116800D8A411D03E0E6019D8B405D00CD08398FD
:101178007DD083887BD05F51300AD8B4F8D7010A74
:10118800D8B4F7D773D0570E5C19D8A419D0330E3A
:101198005D19D8A415D0560E5E19D8A411D03E0EEC
:1011A8006019D8B405D00CD0839660D083865ED001
:1011B8005F51300AD8B4F8D7010AD8B4F7D756D057
:1011C800570E5C19D8A419D0320E5D19D8A415D0C1
:1011D800560E5E19D8A411D03E0E6019D8B405D0A9
:1011E8000CD0839443D0838441D05F51300AD8B463
:1011F800F8D7010AD8B4F7D739D0570E5C19D8A454
:1012080019D0310E5D19D8A415D0560E5E19D8A480
:1012180011D03E0E6019D8B405D00CD0839226D0D8
:10122800838224D05F51300AD8B4F8D7010AD8B4E1
:10123800F7D71CD0570E5C19D8A418D0300E5D19FA
:10124800D8A414D0560E5E19D8A410D03E0E60193A
:10125800D8B405D00BD0839009D0838007D05F51D4
:10126800300AD8B4F8D7010AD8B4F7D7000E01016C
:101278005B6F000E566F49D5020E506501D01AD02B
:10128800505147EC15F03BC020F13CC021F13DC066
:1012980022F101015051030D470EF324D96E010EBE
:1012A800F420DA6E20C1DEFF21C1DEFF22C1DEFF9D
:1012B800502BE2D74DC144F04EC145F04FC146F026
:1012C800000E476EC80E486E420E496E2EEC11F0A5
:1012D80044C023F145C024F146C025F181B63DD074
:1012E80001015A05D8A439D05951020D6B0EF324C7
:1012F800D96E010EF420DA6EDECFC9F0DDCFCAF068
:10130800C9C0CBF0CAC0CCF0000E0001CCBFFF0EA4
:10131800CD6FCE6FCB51010151270001CC51010196
:1013280052230001CD51010153230001CE51010187
:10133800542354BF12D0545108E1800E515D510E10
:101348005259010E5359D8A008D0000E516F000E03
:10135800526F000E536F000E546F81B833D00101E5
:101368005A05D8A42FD05951020D6B0EF324D96E0B
:10137800010EF420DA6EDECFC9F0DDCFCAF0C9C0A5
:10138800CBF0CAC0CCF0000E0001CCBFFF0ECD6F71
:10139800CE6FCB510101515F0001CC510101525B6D
:1013A8000001CD510101535B0001CE510101545B95
:1013B80054AF08D0000E516F000E526F000E536FDD
:1013C800000E546F010E01013E6F010E1E6E010EDC
:1013D800C0EC16F001013E51D8B42CD051C114F024
:1013E80052C115F053C116F054C117F0100E186E03
:1013F8000E0E196E000E1A6E000E1B6E1BEC12F00C
:1014080014C03FF115C040F151C114F052C115F09C
:1014180053C116F054C117F0100E186E0E0E196E47
:10142800000E1A6E000E1B6E3AEC13F014C045F154
:1014380015C046F145C11AF046C11BF0000E1D6EDD
:101448003C0E1C6ED8EC13F01AC041F11BC042F1DF
:1014580045C114F046C115F0000E176E3C0E166E0D
:10146800DCEC14F014C043F115C044F1000E000187
:10147800996F010E9A6FFD0E9B6FFE0E9C6F3FC118
:101488009DF040C19EF041C19FF042C1A0F043C110
:10149800A1F044C1A2F023C1A3F024C1A4F025C146
:1014A800A5F009EC00F0000E226E010E236E7BEC15
:1014B80017F0020E1E6E010EC0EC16F082B405D0B5
:1014C800ED0E01013A6FFF0E04D0F90E01013A6FDB
:1014D800FF0E3B6F82BA04D0ED0E3C6FFF0E03D0B7
:1014E800F90E3C6FFF0E3D6F000E0001996F010E63
:1014F8009A6F220E9B6FFF0E9C6F3CC19DF03DC101
:101508009EF03AC19FF03BC1A0F009EC00F0000E3C
:10151800226E010E236E7BEC17F0030E1E6E010E79
:10152800C0EC16F001015A51D8A419D0000E0001E0
:10153800996F010E9A6F120E9B6FFF0E9C6F01013F
:101548005A51020D770EF324D96E010EF420DA6E8B
:10155800DECF9DF0DDCF9EF009EC00F024D0000E28
:101568000001996F010E9A6F310E9B6FFF0E9C6FF1
:1015780001015A51020D770EF324D96E010EF420A1
:10158800DA6EDECF9DF0DDCF9EF05951020D710E5F
:10159800F324D96E010EF420DA6EDECF9FF0DDCF92
:1015A800A0F009EC00F0000E226E010E236E7BEC19
:1015B80017F0040E1E6E010EC0EC16F00101585112
:1015C800D8A418D0000E0001996F010E9A6FE70E8B
:1015D8009B6FFE0E9C6F47C19DF048C19EF049C1AC
:1015E8009FF04AC1A0F04BC1A1F04CC1A2F009EC98
:1015F80000F00FD0000E0001996F010E9A6FE70EF0
:101608009B6FFF0E9C6F3F0E9D6FFF0E9E6F09EC48
:1016180000F0000E226E010E236E7BEC17F0000E18
:10162800156E640E146E44EC17F0010157A508D02E
:10163800000E156EC80E146E44EC17F00101579594
:1016480057A308D0000E156EC80E146E44EC17F0A0
:101658000101579357A107EF00F0000E156EC80E51
:10166800146E44EC17F00101579107EF00F00001E8
:10167800836F000183AF18D1836D8351800A120FE5
:10168800D8A09CD0000E256E030E246E000E1D6E91
:101698000A0E1C6E000E176E640E166E8351146EC1
:1016A800156A14BE1506DCEC14F014C01AF015C047
:1016B8001BF0D8EC13F0090E1A24226E000E1B2022
:1016C800236E31EC17F0AA0E2224F66EFE0E2320AC
:1016D800F76EF86A000EF8220900F5CF47F0090006
:1016E800F5CF48F00A00F5CF49F0000E1D6E640EE4
:1016F8001C6E000183511A6E1B6A1ABE1B06D8ECB9
:1017080013F0120E1A24226E000E1B20236E000EF8
:10171800256E030E246E31EC17F0AA0E2224F66E05
:10172800FE0E2320F76EF86A000EF8220900F5CFA6
:1017380044F00900F5CF45F00A00F5CF46F02EEC4D
:1017480011F044C080F045C081F046C082F080C0EE
:1017580044F081C045F082C046F0000E256E030EAD
:10176800246E000E176E0A0E166E00018351146E59
:10177800156A14BE1506DCEC14F014C022F015C06E
:1017880023F031EC17F0AA0E2224F66EFE0E232069
:10179800F76EF86A000EF8220900F5CF47F0090045
:1017A800F5CF48F00A00F5CF49F02EEC11F044C00F
:1017B80053F045C054F046C055F012000001835163
:1017C800800A750FD8A05AD0000E1D6E0A0E1C6E26
:1017D80083511A6E1B6A1ABE1B06D8EC13F0090E49
:1017E8001A24226E000E1B20236E000E256E030E97
:1017F800246E31EC17F0AA0E2224F66EFE0E23207A
:10180800F76EF86A000EF8220900F5CF44F00900D7
:10181800F5CF45F00A00F5CF46F0000E256E030E11
:10182800246E000E176E0A0E166E00018351146E98
:10183800156A14BE1506DCEC14F014C022F015C0AD
:1018480023F031EC17F0AA0E2224F66EFE0E2320A8
:10185800F76EF86A000EF8220900F5CF47F0090084
:10186800F5CF48F00A00F5CF49F02EEC11F044C04E
:1018780053F045C054F046C055F0120000018351A2
:10188800030DAA0EF324F66EFE0EF420F76EF86A26
:10189800000EF8220900F5CF53F00900F5CF54F0F7
:1018A8000A00F5CF55F012008351800A120FD8A014
:1018B8009CD0000E256E030E246E000E1D6E0A0EBF
:1018C8001C6E000E176E640E166E8351146E156A28
:1018D80014BE1506DCEC14F014C01AF015C01BF089
:1018E800D8EC13F0090E1A24226E000E1B20236E6A
:1018F80031EC17F0830E2224F66EFE0E2320F76ECD
:10190800F86A000EF8220900F5CF47F00900F5CF74
:1019180048F00A00F5CF49F0000E1D6E640E1C6EEB
:10192800000183511A6E1B6A1ABE1B06D8EC13F00D
:10193800120E1A24226E000E1B20236E000E256E36
:10194800030E246E31EC17F0830E2224F66EFE0E81
:101958002320F76EF86A000EF8220900F5CF44F04C
:101968000900F5CF45F00A00F5CF46F02EEC11F04E
:1019780044C080F045C081F046C082F080C044F089
:1019880081C045F082C046F0000E256E030E246E1D
:10199800000E176E0A0E166E00018351146E156A3A
:1019A80014BE1506DCEC14F014C022F015C023F0A8
:1019B80031EC17F0830E2224F66EFE0E2320F76E0C
:1019C800F86A000EF8220900F5CF47F00900F5CFB4
:1019D80048F00A00F5CF49F02EEC11F044C053F05E
:1019E80045C054F046C055F0120000018351800AEA
:1019F800750FD8A05AD0000E1D6E0A0E1C6E8351AA
:101A08001A6E1B6A1ABE1B06D8EC13F0090E1A24AC
:101A1800226E000E1B20236E000E256E030E246E10
:101A280031EC17F0830E2224F66EFE0E2320F76E9B
:101A3800F86A000EF8220900F5CF44F00900F5CF46
:101A480045F00A00F5CF46F0000E256E030E246E11
:101A5800000E176E0A0E166E00018351146E156A79
:101A680014BE1506DCEC14F014C022F015C023F0E7
:101A780031EC17F0830E2224F66EFE0E2320F76E4B
:101A8800F86A000EF8220900F5CF47F00900F5CFF3
:101A980048F00A00F5CF49F02EEC11F044C053F09D
:101AA80045C054F046C055F0120000018351030DA3
:101AB800830EF324F66EFE0EF420F76EF86A000E1D
:101AC800F8220900F5CF53F00900F5CF54F00A00C9
:101AD800F5CF55F012000001866F6D0E0001866586
:101AE800A8D0000E256E030E246E000E1D6E0A0E81
:101AF8001C6E000E176E640E166E86C014F0156A02
:101B0800DCEC14F014C01AF015C01BF0D8EC13F07C
:101B1800090E1A24226E000E1B20236E31EC17F0DA
:101B2800AA0E2224F66EFE0E2320F76EF86A000E27
:101B3800F8220900F5CF47F00900F5CF48F00A0070
:101B4800F5CF49F0000E1D6E640E1C6E86C01AF0AB
:101B58001B6AD8EC13F0120E1A24226E000E1B20FA
:101B6800236E000E256E030E246E31EC17F0AA0EBC
:101B78002224F66EFE0E2320F76EF86A000EF82275
:101B88000900F5CF44F00900F5CF45F00A00F5CF7C
:101B980046F02EEC11F044C083F045C084F046C0F6
:101BA80085F0000E256E030E246E000E176E0A0EC9
:101BB800166E86C014F0156ADCEC14F014C022F01E
:101BC80015C023F031EC17F0AA0E2224F66EFE0E93
:101BD8002320F76EF86A000EF8220900F5CF47F0C7
:101BE8000900F5CF48F00A00F5CF49F083C044F06A
:101BF80084C045F085C046F02EEC11F044C080F05A
:101C080045C081F046C082F080C044F081C045F0F4
:101C180082C046F0000E476E000E486E3F0E496EB9
:101C28002EEC11F044C053F045C054F046C055F0B6
:101C380012000A0E0001866569D0000E256E030E9B
:101C4800246E000E176E0A0E166E86C014F0156A02
:101C5800DCEC14F014C022F015C023F031EC17F0BE
:101C6800AA0E2224F66EFE0E2320F76EF86A000EE6
:101C7800F8220900F5CF47F00900F5CF48F00A002F
:101C8800F5CF49F0000E1D6E0A0E1C6E86C01AF0C4
:101C98001B6AD8EC13F0090E1A24226E000E1B20C2
:101CA800236E000E256E030E246E31EC17F0AA0E7B
:101CB8002224F66EFE0E2320F76EF86A000EF82234
:101CC8000900F5CF44F00900F5CF45F00A00F5CF3B
:101CD80046F02EEC11F044C083F045C084F046C0B5
:101CE80085F083C044F084C045F085C046F0000EFE
:101CF800476E000E486E3F0E496E2EEC11F044C040
:101D080053F045C054F046C055F01200000186510A
:101D1800030DAA0EF324F66EFE0EF420F76EF86A91
:101D2800000EF8220900F5CF44F00900F5CF45F080
:101D38000A00F5CF46F0000E476E000E486E3F0EC3
:101D4800496E2EEC11F044C053F045C054F046C023
:101D580055F0120089C08DF000018E6B8F6B8835AD
:101D68008D3701E38E818D51926F8CC08DF08E6B13
:101D78008F6B8B358D3701E38E818D51916F925129
:101D8800D8B40BD09151925DD8B00ED092510008C2
:101D980091258D6F180E8D6507D08AC087F08BC08E
:101DA80088F08CC089F012009151D8B40BD09251B0
:101DB800915DD8B00ED09151000892258D6F180E04
:101DC8008D6507D087C087F088C088F089C089F002
:101DD8001200060E906F89BF908F8CBF908D888FF0
:101DE800FF0E8717FF0E8817000E89178B8FFF0EBF
:101DF8008A17FF0E8B17000E8C179151925DD8B081
:101E08001BD0D8908A378B378C379107925191190C
:101E1800D8B40DD0900790C08DF0070E8D17D8B4A8
:101E280006D0EFD7D890893388338733922B9151D6
:101E38009219D8B41FD0F6D79251915DD8B01AD064
:101E4800D890873788378937920792519119D8B433
:101E58000DD0900790C08DF0070E8D17D8B406D01E
:101E6800EFD7D8908C338B338A33912B91519219B9
:101E7800D8A4F7D790AF0CD0FF0E871BFF0E881B96
:101E8800FF0E891B010E8727000E8823000E892369
:101E980090AD0CD0FF0E8A1BFF0E8B1BFF0E8C1B08
:101EA800010E8A27000E8B23000E8C23000E906FE4
:101EB80087518A2788518B2389518C238CAF0ED068
:101EC800FF0E8A1BFF0E8B1BFF0E8C1B010E8A2731
:101ED800000E8B23000E8C23010E906F8AC014F025
:101EE8008BC015F08CC016F092C017F090C018F097
:101EF800E3EC12F014C087F015C088F016C089F022
:101F0800120016C01AF01B6A1C6A15341A3601E34F
:101F18001B801A50226E2250D8A409D0000E146ECD
:101F2800000E156E000E166E000E176E120019C008
:101F38001AF01B6A1C6A18341A3601E31B801A50FF
:101F4800216E2150D8A409D0000E146E000E156E13
:101F5800000E166E000E176E1200158EFF0E141668
:101F6800FF0E1516000E1616188EFF0E1716FF0E0A
:101F78001816000E1916000E1D6E000E1E6E000EAD
:101F88001F6E000E206E7F0E225E2150980F225E7B
:101F9800180E216ED8901D361E361F362036175063
:101FA800145C1850155819501658D8A007D0175057
:101FB800145E1850155A1950165A1D80D8901436A8
:101FC80015361636212EE6D722AE16D02250800AB4
:101FD800970FD8B009D0000E146E000E156E000EC3
:101FE800166E000E176E1200D89020321F321E3265
:101FF8001D32223EF9D715D0170E22640FD0000EDD
:10200800146E000E156E000E166E000E176E12007E
:10201800D8901D361E361F36203622062250D8A4E8
:10202800F7D71DC014F01EC015F01FC016F020C051
:1020380017F01200163417341F6E1F50D8A409D099
:10204800000E146E000E156E000E166E000E176E42
:10205800120019341A341E6E1E50D8A409D0000E6E
:10206800146E000E156E000E166E000E176E12001E
:10207800168EFF0E1416FF0E1516FF0E1616000EFE
:102088001716198EFF0E1716FF0E1816FF0E1916C3
:10209800000E1A16000E1A6E000E1B6E000E1C6E35
:1020A800000E1D6E7F0E1F5E1E50A00F1F5E200EBD
:1020B8001E6ED8901A361B361C361D361750145C07
:1020C80018501558195016581A501758D8A009D032
:1020D8001750145E1850155A1950165A1A50175A94
:1020E8001A80D89014361536163617361E2EE1D7B4
:1020F8001FAE16D01F50800A9F0FD8B009D0000E0F
:10210800146E000E156E000E166E000E176E12007D
:10211800D8901D321C321B321A321F3EF9D715D007
:102128001F0E1F640FD0000E146E000E156E000EE9
:10213800166E000E176E1200D8901A361B361C3613
:102148001D361F061F50D8A4F7D71AC014F01BC09D
:1021580015F01CC016F01DC017F0120086C088F0DC
:102168000001896B8A6B8535883701E3898188513D
:10217800926F9251D8A409D0000E846F000E856F1B
:10218800000E866F000E876F1200170E886F84C0CE
:1021980089F085C08AF086C08BF088298C6F04D0BE
:1021A800D8908B338A3389338C2FFAD70001895121
:1021B8008D6F858FFF0E8417FF0E8517000E86170B
:1021C80084518E6F85518F6F8651906F916B8E0EF3
:1021D800925F92AF16D09251800A8F0FD8B009D073
:1021E800000E846F000E856F000E866F000E876FDD
:1021F8001200D890913390338F338E33923FF9D7B2
:1022080015D0170E92650FD0000E846F000E856FE3
:10221800000E866F000E876F1200D8908E378F37AA
:102228009037913792079251D8A4F7D78D51D8B4E7
:1022380008D0911F901F8F1F8E6D000E8F23902343
:1022480091238EC084F08FC085F090C086F091C035
:1022580087F0120046C04AF04B6A4C6A45344A3649
:1022680001E34B804A504D6E4D50D8A407D0000E64
:10227800446E000E456E000E466E120049C04AF0CC
:102288004B6A4C6A48344A3601E34B804A50526ED6
:102298005250D8A407D0000E446E000E456E000EB2
:1022A800466E120052507B0F4D2646C052F04950E0
:1022B800521A800E5216458E488EFF0E4716FF0E94
:1022C8004816000E4916000E4E6E000E4F6E000E98
:1022D800506E070E516E44A006D047504E26485007
:1022E8004F2249505022D890463245324432D89035
:1022F800473648364936512EEED7090E516E44A05E
:1023080006D047504E2648504F2249505022D89068
:10231800463245324432D89050324F324E32512EE6
:10232800EED74EC014F04FC015F050C016F04DC097
:1023380017F052C018F0E3EC12F014C044F015C0C6
:1023480045F016C046F012002EC032F0336A346AE7
:102358002D34323601E333803250396E3950D8A4E7
:1023680007D0000E2C6E000E2D6E000E2E6E120081
:1023780031C032F0336A346A3034323601E33380A4
:1023880032503A6E3A50D8A407D0000E2C6E000E88
:102398002D6E000E2E6E1200000E366E000E376E79
:1023A800000E386E3A50890F395E2EC03AF031501F
:1023B8003A1A800E3A162D8EFF0E2C16FF0E2D1689
:1023C800000E2E16308EFF0E2F16FF0E3016000E42
:1023D8003116180E356ED8903636373638362F50B7
:1023E8002C5C30502D5831502E58D8A007D02F5083
:1023F8002C5E30502D5A31502E5A3680D8902C36BB
:102408002D362E36352EE7D736C014F037C015F0E6
:1024180038C016F039C017F03AC018F0E3EC12F0E3
:1024280014C02CF015C02DF016C02EF01200000EAE
:102438001D6E1BAE0AD01B1E1A1E191E186C000E2C
:1024480019221A221B22010E1D6E17AE0AD0171E62
:10245800161E151E146C000E152216221722010EC8
:102468001D1A000E1E6E000E1F6E000E206E000E4E
:10247800216E185019101A101B10D8B42AD0010E4A
:102488001C6E06D0D890183619361A361B361C2AF8
:102498001BAEF8D7D8901E361F3620362136185076
:1024A800145C195015581A5016581B501758D8A0B4
:1024B80009D01850145E1950155A1A50165A1B5044
:1024C800175A1E80D8901B321A32193218321C2E15
:1024D800E1D71D50D8B408D0211E201E1F1E1E6C27
:1024E800000E1F22202221221EC014F01FC015F04A
:1024F80020C016F021C017F012000600FACF02F033
:10250800FBCF03F0E9CF04F0EACF05F0E1CF06F006
:10251800E2CF07F0D9CF08F0DACF09F0F3CF0AF00D
:10252800F4CF0BF0F6CF0CF0F7CF0DF0F8CF0EF09C
:10253800F5CF0FF06AC010F06BC011F06CC012F04C
:102548006DC013F0F0A003D0C6EC17F012D0F0A2C3
:1025580003D0BAEC17F00DD0F2A403D07CEC16F03F
:1025680008D09EAA03D09CEC14F003D0F2B2D2ECAF
:1025780017F013C06DF012C06CF011C06BF010C0F2
:102588006AF00FC0F5FF0EC0F8FF0DC0F7FF0CC0D2
:10259800F6FF0BC0F4FF0AC0F3FF09C0DAFF08C05A
:1025A800D9FF07C0E2FF06C0E1FF05C0EAFF04C08B
:1025B800E9FF03C0FBFF02C0FAFF6A92110017503F
:1025C800D8B405D0145015101610D8A40CD0000E8D
:1025D800146E000E156E000E166E1200172AD89093
:1025E800163215321432000E1414196E000E15141A
:1025F8001A6EFE0E16141B6E19501A101B10D8B442
:102608000CD0ECD7172A010E1426000E1522000E46
:102618001622D890163215321432000E1414196E80
:10262800000E15141A6EFF0E16141B6E19501A1090
:102638001B10D8B406D0E6D71706D890143615362E
:10264800163615BE03D0020E1760F6D717A0159ED2
:10265800D8901732175016121850D8A4168E14C0D6
:1026680014F015C015F016C016F01200000E1D6EFD
:1026780017AE0AD0171E161E151E146C000E152252
:1026880016221722010E1D6E1BAE08D01B1E1A1E25
:10269800191E186C000E19221A221B221850191024
:1026A8001A101B10D8B424D0010E1C6E06D0D89076
:1026B800183619361A361B361C2A1BAEF8D718508E
:1026C800145C195015581A5016581B501758D8A092
:1026D80008D01850145E1950155A1A50165A1B5023
:1026E800175AD8901B321A32193218321C2EE7D7D3
:1026F8001D50D8B408D0171E161E151E146C000ED7
:1027080015221622172214C014F015C015F016C091
:1027180016F017C017F0120016AE16D014C01AF033
:1027280015C01BF016C01CF01A1E1B1E1C1E1A2AF0
:10273800000E1B221C22000E1A24146E000E1B20F1
:10274800156E800E1C20166E19AE16D017C01AF022
:1027580018C01BF019C01CF01A1E1B1E1C1E1A2ABA
:10276800000E1B221C22000E1A24176E000E1B20BE
:10277800186E800E1C20196E000E141A000E151A01
:10278800800E161A000E171A000E181A800E191A43
:102798001750145C1850155819501658D8B002D054
:1027A800D8901200D8801200000E1F6E1DAE06D001
:1027B8001C6C1D1ED8B01D2A010E1F6E1BAE06D044
:1027C8001A6C1B1ED8B01B2A010E1F1A000E216E90
:1027D800000E206E1C501D10D8B41CD0010E1E6EA9
:1027E80004D0D8901C361D361E2A1DAEFAD7D890B4
:1027F800203621361C501A5C1D501B58D8A005D015
:102808001C501A5E1D501B5A2080D8901D321C3255
:102818001E2EEDD71F50D8B404D0206C211ED8B07E
:10282800212A20C01AF021C01BF01200BC0EF66E3F
:102838002F0EF76E000EF86E01EE6BF010EE10F032
:102848000900F5CFEEFFE550E150FAE1F30EF66E20
:102858002F0EF76E000EF86E00EECFF010EE04F0BB
:102868000900F5CFEEFFE550E150FAE1E80EF66E0B
:102878002F0EF76E000EF86E00EE56F010EE0BF00D
:102888000900F5CFEEFFE550E150FAE101EE51F015
:102898001A0EEE6AE806FDE100EE61F0090EEE6A36
:1028A800E806FDE16A906A92000125EF06F0000E45
:1028B8001C6E000E1D6E000E1E6E000E1F6E185050
:1028C80019101A101B10D8B42AD0010E206E06D089
:1028D800D890183619361A361B36202A1BAEF8D768
:1028E800D8901C361D361E361F361850145C1950E9
:1028F80015581A5016581B501758D8A009D01850F8
:10290800145E1950155A1A50165A1B50175A1C8023
:10291800D8901B321A3219321832202EE1D71CC037
:1029280014F01DC015F01EC016F01FC017F01200DD
:10293800AECF69F001015651D8A412003C0E6918B7
:10294800D8A40FD0000E666E000E656E5B0E65246F
:10295800D96E010E6620DA6E69C0DFFF654A662A05
:1029680012005F50655C6650800A016E6050800AF4
:102978000158D8B012003C0E5B19D8A412005B0EA7
:102988006524D96E010E6620DA6E69C0DFFF654ADC
:10299800662A3E0E6918D8A41200010E566F5B0E07
:1029A8006524D96E010E6620DA6E000EDF6E120005
:1029B800000E196E15AE06D0146C151ED8B0152A67
:1029C800010E196E17AE04D0166C171ED8B0172A50
:1029D80016501710D8B418D0010E186E04D0D8901D
:1029E80016361736182A17AEFAD71650145C175031
:1029F8001558D8A004D01650145E1750155AD89000
:102A080017321632182EF1D71950D8B404D0146CD6
:102A1800151ED8B0152A14C014F015C015F01200F0
:102A28002550261027102810D8B424D0010E296E5E
:102A380006D0D8902536263627362836292A28AEB5
:102A4800F8D72550215C2650225827502358285063
:102A58002458D8A008D02550215E2650225A275045
:102A6800235A2850245AD890283227322632253221
:102A7800292EE7D721C021F022C022F023C023F05D
:102A880024C024F01200416E4150E1EC16F014C04D
:102A980042F015C043F042C022F043C023F0000EBC
:102AA800256E050E246E31EC17F022C028F023C0E5
:102AB80029F0FEEC16F028C02CF029C02DF02AC011
:102AC8002EF0C00E2F6E7F0E306E440E316EA8ECC5
:102AD80011F02CC03EF02DC03FF02EC040F03EC09B
:102AE8003BF03FC03CF040C03DF01200849484921B
:102AF800000E156E190E146E44EC17F0010E1E6EC2
:102B0800030E1E6401D00BD0030E8DEC17F0000EDF
:102B1800156E060E146E44EC17F01E2AF1D7020E3D
:102B28008DEC17F0000E1E6E030E1E6401D012000D
:102B38001E50010DCF0EF324D96E000EF420DA6E6C
:102B4800DF501C6E000E58EC16F01E2AEDD78E0EC4
:102B5800246E06D0D8901F321E321D321C32242A11
:102B6800000E1C14206E000E1D14216E000E1E1483
:102B7800226EFF0E1F14236E2050211022102310E6
:102B8800D8A4E8D71CC014F01DC015F01EC016F05C
:102B980024C017F0000E186EE3EC12F014C01CF0FD
:102BA80015C01DF016C01EF0120015D015C0F6FF96
:102BB80016C0F7FF000EF86E0F0EF76403D008007A
:102BC800F55005D0F6CFE9FFF7CFEAFFEF50E6EC76
:102BD80017F0154A162A15C0F6FF16C0F7FF000EA3
:102BE800F86E0F0EF76403D00800F55005D0F6CF45
:102BF800E9FFF7CFEAFFEF500009D8B41200D6D7A3
:102C0800216E1ED0010E1C6E000E58EC16F0000E40
:102C1800156E020E146E44EC17F01200020E1E6EB2
:102C2800010EC0EC16F01200100E1C6E000E58ECCF
:102C380016F0120021C01CF0010E58EC16F012001C
:102C48002150080AD8B4F0D7020AD8B4E7D7060A40
:102C5800D8B4D8D7EFD7000EF26E000EF16E000E82
:102C6800F06E000ED56EF294D580D582D5940B0EF9
:102C7800D76EDC0ED66E000E9D6E9D8A000ED06E4D
:102C8800D09EF28EF28CF28AF288F18CF18AF18869
:102C9800000EF06EF086F088000EA06E000EA16E99
:102CA800000EB16ED58E12001D6E1DB002D0849438
:102CB80001D08484010E1AEC17F0010E1AEC17F0FB
:102CC80084921C380F0B8DEC17F01C500F0B8DECF9
:102CD80017F01D50D8B405D0320E0400E82EFDD7E9
:102CE8001200000E156E020E146E44EC17F012005E
:102CF80001015A05D8B419D0010E5127000E5223EC
:102D08005323542354BF11D05451531106E1800E5C
:102D1800515D510E5259D8A008D0000E516F000EC7
:102D2800526F000E536F000E546F0B0ED76EDC0EF1
:102D3800D66EF29412000001965197119811D8B4EA
:102D480006D0000E961B000E971B800E981B93C092
:102D580087F094C088F095C089F096C08AF097C033
:102D68008BF098C08CF0AEEC0EF087C093F088C062
:102D780094F089C095F012001F6E09D0800E05D01E
:102D8800C00E03D0900E01D0D00E206E0DD01E5074
:102D9800010AD8B4F3D7030AD8B4F2D7010AD8B4D1
:102DA800F1D7070AD8B4F0D71F042026205080098D
:102DB8001C6E000E58EC16F012001A6E1AC016F0AF
:102DC80016461646C2501618C30B1618C26EC28293
:102DD800C2B2FED7C350C4CF16F0176A16C017F098
:102DE800166A1610186E1750196E18C014F019C00C
:102DF80015F01200000E2B6E29AE06D0286C291E85
:102E0800D8B0292A010E2B6E28C014F029C015F05D
:102E1800166A8E0E176E2BC018F0E3EC12F014C071
:102E280028F015C029F016C02AF01200176E000EFF
:102E3800196E000E186E03D00400184A192A17508C
:102E4800146E156A1850145C1550800A166E1950C5
:102E5800800A1658D8A01200EFD722502402F3CFC8
:102E680026F0F4CF27F022502502F35027262350CE
:102E78002402F350272626C022F027C023F0120090
:102E8800000E176E000E166E07D0C80E0400040060
:102E9800E82EFCD7164A172A1650145C17501558F6
:102EA800D8A01200F2D7145015101610D8B406D0B6
:102EB800000E141A000E151A800E161A14C014F0FB
:102EC80015C015F016C016F01200B896000EAC6EBC
:102ED800190EAF6E000EB06EAC84AC8A000EAB6EED
:102EE800AB88AB8EAECF14F0AECF14F0120009D081
:102EF80022C0D9FF23C0DAFFDF5004EC16F0224AC3
:102F0800232A22C0D9FF23C0DAFFDF50D8B4120029
:102F1800EFD71B6E1BC01AF01A3A83501A180F0B02
:102F28001A18836E010E1AEC17F08482040000F060
:102F380084921200166E000E156E3A0E166005D0B9
:102F48002F0E166402D0010E156E15C014F0143041
:102F58001200000EC26E0C0EC16E9368800E946E45
:102F68009268000E956E000E966E1200F0920101A6
:102F780057B51200592B020E596502D0000E596F31
:102F880057851200010157B307D05A2B010E5A6515
:102F980002D0000E5A6F5783F0901200010157B10A
:102FA80007D0582B010E586502D0000E586F578174
:102FB800F292120001003C00100EF1FFF5FFFCFF39
:102FC800E0FF99FF146E01D00400ACA2FDD714C035
:102FD800ADFF1200000EC26EC280890EC06E1200D4
:0F2FE80000204250460A0003000700280C010693
:10FE5A0000010000000A00000064000000E803003E
:10FE6A000010270000A086010040420F00809698EB
:10FE7A000000E1F50500CA9A3B00803F00204100DE
:10FE8A00C842007A44401C4650C347247449971814
:10FE9A004BBCBE4C6B6E4E03155079AD60F3497185
:10FEAA0000803FCDCC3DD7233C12833AB7D138C628
:10FEBA002737388635C0D633CC2B32708930E7DB0A
:10FECA002EE53C1E42A20D54696D653A2530326416
:10FEDA003A253032643A253032640A2000414930EA
:10FEEA003A25332E316620204149313A25332E31C5
:10FEFA00662000253032643A253032643A253032A1
:10FF0A00642025342E326600252D357320202020CA
:10FF1A002020202020202000483A2533732020204A
:10FF2A0020433A25337300252D357320204D443A5A
:10FF3A00252D377300617961742074656D61004401
:10FF4A00303A4F46460A0044313A4F46460A004480
:10FF5A00323A4F46460A0044333A4F46460A00446C
:10FF6A00343A4F46460A0044353A4F46460A004458
:10FF7A00373A4F46460A00616E303D25660A0061EF
:10FF8A006E313D25660A00616E323D25660A0053D0
:10FF9A006574436C6F6B00286E756C6C2900443075
:10FFAA003A4F4E0A0044313A4F4E0A0044323A4F11
:10FFBA004E0A0044333A4F4E0A0044343A4F4E0A2E
:10FFCA000044353A4F4E0A0044363A4F4E0A00442E
:10FFDA00373A4F4E0A004E6F726D616C00252D3113
:10FFEA003673004F464600536563004D696E004FF5
:06FFFA004E004852000019
:020000040020DA
:08000000FFFFFFFFFFFFFFFF00
:020000040030CA
:0E000000FF011F1FFF8385FF0FC00FE00F40A1
:00000001FF
